:100000000C9462000C947F000C947F000C947F0091
:100010000C947F000C947F000C947F000C947F0064
:100020000C947F000C947F000C947F000C947F0054
:100030000C947F000C947F000C947F000C947F0044
:100040000C9447020C947F000C947F000C947F006A
:100050000C947F000C947F000C947F000C947F0024
:100060000C947F000C947F00000000002400270007
:100070002A0000000000250028002B0000000000DE
:1000800023002600290004040404040404040202DA
:100090000202020203030303030301020408102007
:1000A0004080010204081020010204081020000012
:1000B0000008000201000003040700000000000027
:1000C0000000C50411241FBECFEFD8E0DEBFCDBFB6
:1000D00021E0A0E0B1E001C01D92A232B207E1F739
:1000E00010E0C2E6D0E004C02197FE010E94F304B4
:1000F000C136D107C9F70E9491020C94F9040C94FF
:100100000000833081F028F4813099F08230A1F032
:1001100008958730A9F08830B9F08430D1F4809107
:1001200080008F7D03C0809180008F778093800056
:10013000089584B58F7702C084B58F7D84BD0895FE
:100140008091B0008F7703C08091B0008F7D809345
:10015000B0000895CF93DF93282F30E0F901E255E6
:10016000FF4F8491F901E656FF4FD491F901EA5708
:10017000FF4FC491CC2391F081110E948100EC2F9C
:10018000F0E0EE0FFF1FE458FF4FA591B491EC9102
:10019000ED2381E090E021F480E002C080E090E077
:1001A000DF91CF9108951F93CF93DF93282F30E0F5
:1001B000F901E255FF4F8491F901E656FF4FD491C2
:1001C000F901EA57FF4FC491CC23C9F0162F8111D2
:1001D0000E948100EC2FF0E0EE0FFF1FEE58FF4F62
:1001E000A591B4918FB7F894111105C09C91ED2F92
:1001F000E095E92302C0EC91ED2BEC938FBFDF91EA
:10020000CF911F910895CF93DF9390E0FC01E656C4
:10021000FF4F2491FC01EA57FF4F8491882361F13D
:1002200090E0880F991FFC01E859FF4FC591D491C8
:10023000FC01EE58FF4FA591B491611109C09FB721
:10024000F8948881209582238883EC912E230BC01B
:10025000623061F49FB7F8943881822F80958323B0
:100260008883EC912E2B2C939FBF06C08FB7F894F8
:10027000E8812E2B28838FBFDF91CF9108953FB760
:10028000F8948091050190910601A0910701B09129
:10029000080126B5A89B05C02F3F19F00196A11DA6
:1002A000B11D3FBFBA2FA92F982F8827820F911D0C
:1002B000A11DB11DBC01CD0142E0660F771F881F53
:1002C000991F4A95D1F708958F929F92AF92BF924E
:1002D000CF92DF92EF92FF926B017C010E943F016F
:1002E0004B015C01C114D104E104F104F1F00E945E
:1002F0003F01DC01CB0188199909AA09BB09883E95
:100300009340A105B10570F321E0C21AD108E108BC
:10031000F10888EE880E83E0981EA11CB11CC11460
:10032000D104E104F10419F7DDCFFF90EF90DF90E5
:10033000CF90BF90AF909F908F900895DF92EF92F3
:10034000FF920F931F93CF93DF938C01D42EC0E0C5
:10035000D0E0E62EF12CB7010C2E02C07595679502
:100360000A94E2F76170F80181810E94D30061E094
:10037000F80180810E94D30060E0F801DD2039F0AF
:10038000C730D10521F481810E94030103C080811F
:100390000E94D3002196C830D105E9F6DF91CF91B4
:1003A0001F910F91FF90EF90DF90089560E0FC01A6
:1003B00082810E94D3008BE090E00197F1F70895CD
:1003C000CF93DF93EC0160E08A810E94D30061E06B
:1003D0008A810E94030160E088810E94D30061E06D
:1003E00088810E94030161E089810E94030161E02C
:1003F0008A810E94D3008BE090E00197F1F7DF91B2
:10040000CF9108950F931F93CF93DF938C01C0E09A
:10041000D0E0C017D1074CF468EE73E080E090E0C4
:100420000E946401A8952196F4CFDF91CF911F918E
:100430000F9108951F93CF93DF93182F60E08AE008
:100440000E94D30060E087E00E94D30060E08DE06E
:100450000E94D300CAE0D0E0A89561E0812F0E94FD
:10046000D30064EF71E080E090E00E94640160E0FE
:10047000812F0E94D30064EF71E080E090E00E9441
:100480006401219749F7DF91CF911F9108951F9241
:100490000F920FB60F9211242F933F938F939F9338
:1004A000AF93BF938091010190910201A09103014C
:1004B000B09104013091000123E0230F2D3720F487
:1004C0000196A11DB11D05C026E8230F0296A11DAE
:1004D000B11D209300018093010190930201A0932C
:1004E0000301B09304018091050190910601A09150
:1004F0000701B09108010196A11DB11D809305016E
:1005000090930601A0930701B0930801BF91AF91AA
:100510009F918F913F912F910F900FBE0F901F9041
:100520001895CF93DF9300D01F92CDB7DEB77894A4
:1005300084B5826084BD84B5816084BD85B58260E8
:1005400085BD85B5816085BD80916E008160809399
:100550006E00109281008091810082608093810002
:100560008091810081608093810080918000816012
:10057000809380008091B10084608093B10080916D
:10058000B00081608093B00080917A008460809395
:100590007A0080917A00826080937A0080917A005C
:1005A000816080937A0080917A00806880937A00DD
:1005B0001092C1000FB6F894A895809160008861F0
:1005C00080936000109260000FBE60E083E00E94A4
:1005D000D30060E083E00E94030160E084E00E94B9
:1005E000D30061E084E00E94030161E089E00E94A1
:1005F000030161E088E00E94030161E08AE00E945B
:10060000030161E086E00E94030161E085E00E9451
:10061000030161E087E00E94030161E08CE00E9439
:10062000030161E08BE00E94030161E08DE00E9424
:10063000030160E089E00E94D30060E088E00E944E
:10064000D30060E08AE00E94D30060E086E00E9470
:10065000D30060E085E00E94D30060E087E00E9464
:10066000D30060E08CE00E94D30060E08BE00E9449
:10067000D30060E08DE00E94D300412C512C320168
:10068000439442E0242E312C8AEA882E912C92E366
:10069000A92EB12C20E0C22E20E0D22EA89587E111
:1006A00091E00E94E00141E06FEB87E191E00E9460
:1006B0009E0109E011E0780140E050E020E061E0B7
:1006C0008091170129834A835B830E94D30060E0F5
:1006D000809117010E94D300809118010E94AA0006
:1006E00029814A815B81892B61F0D301C201042EEB
:1006F00004C0880F991FAA1FBB1F0A94D2F7282B8A
:100700000CC0D301C201042E04C0880F991FAA1F78
:10071000BB1F0A94D2F7809528234F5F5F4F483064
:10072000510569F6F70121937F01F1E1EF16F1E040
:10073000FF0611F687E191E00E94D6018091090140
:10074000982F9695969596959E70292F220F220F99
:10075000920F8F70890F80931A0180910A01982F50
:100760009695969596959E70292F220F220F920F9F
:100770008F70890F80931B0180910B01982F9695A4
:10078000969596959670292F220F220F920F8F70B3
:10079000890F80931C0180910E01877080931D0149
:1007A00080910C01982F9695969596959670292F85
:1007B000220F220F920F8F70890F80931E0180915C
:1007C0000D0184FB992790F9990F292F220F220FF1
:1007D000920F8F70890F80931F0180910F01282F36
:1007E00022952F708F7090E03AE0239F800D911D2D
:1007F00011248053984F909321018093200183E02E
:100800000E94AA00019709F04DC083E00E94AA004F
:10081000019739F46AE070E080E090E00E946401A2
:10082000F4CF88E0E9E0F1E011928A95E9F787E1F9
:1008300080930F0187E191E00E94E00140E06EEBC0
:1008400087E191E00E949E01F80161918F0140E0F3
:1008500087E191E00E949E01F1E001311F07A1F7BD
:1008600087E191E00E94D60105E010E060E084E0BD
:100870000E94D30068EC70E080E090E00E94640188
:1008800061E084E00E94D30068EC70E080E090E0DA
:100890000E946401A8950150110941F760E084E0CD
:1008A0000E94D300309216012092150190921401FB
:1008B00080921301B0921201A092110161E089E0CF
:1008C0000E94D30060E086E00E94D30060E08CE0EC
:1008D0000E94D30060E088E00E94D30061E085E0E0
:1008E0000E94D30061E08BE00E94D3008AEA90E08E
:1008F0000E9402028AE090E00E941A0260E089E011
:100900000E94D30060E086E00E94D30061E08CE0AA
:100910000E94D30061E088E00E94D30061E085E09E
:100920000E94D30060E08BE00E94D30082E390E05D
:100930000E9402028DE090E00E941A0260E089E0CD
:100940000E94D30061E086E00E94D30060E08CE06A
:100950000E94D30061E088E00E94D30060E085E05F
:100960000E94D30061E08BE00E94D30082E390E01C
:100970000E94020287E090E00E941A02C114D10492
:1009800009F48CCE0E9400007FCEE7E1F1E082E026
:10099000808381E081831282CF010E94E00140E0E8
:1009A0006EE887E191E00E949E0140E060E087E10F
:1009B00091E00E949E0187E191E00E94D60187E1CB
:1009C00091E00E94E00140E060E987E191E00E944F
:1009D0009E0140E060E087E191E00E949E0187E196
:1009E00091E00C94D601EE0FFF1F0590F491E02DDD
:0609F0000994F894FFCF0A
:00000001FF
